:020000020000FC
:1000000000C008E00EBF0FE50DBF00E407B907E828
:1000100006B90AE603BF00E00CBF02E80FBD0AE123
:100020000EBD00E206BD0EE407BD0CED0ABD05E005
:100030000BBD0BE207BB0FEF04BB00E005BB26D1F5
:1000400025D178D0BDD0F2E0E6E9C2D01FD11ED1D3
:100050001DD1ECD0412F522F00E0DBD0622F01E008
:10006000D8D0722F6130C4F4733004F54E3154F49B
:1000700000E50CBF08EE0ABD00270BBDC098C19873
:1000800021D01EC008EC0CBF00ED0ABD00270BBD3F
:10009000C09AC19A2DD014C00FEF0CBF00E60ABD64
:1000A00000270BBDC09AC19A33D00AC00FEF0CBF16
:1000B00000E60ABD00270BBDC09AC19A32D000C02D
:1000C000E5D0C7CF7DD0F2E0E6EA82D0042F86D01B
:1000D00003E456D000E254D0F2E0EAEA79D0052FEA
:1000E0007DD005E24DD071D0F2E0E0EB71D0089503
:1000F00067D0F2E0E6EA6CD0042F70D003E440D081
:10010000F2E0E2EC65D061D0F2E0ECEC61D0089571
:1001100057D0F2E0EEED5CD058D0F2E0E0EF58D0EE
:1001200008954ED0F3E0E2E053D04FD0F3E0E4E1A5
:100130004FD00895ABD003E02CD09DD09CD09BD065
:100140009AD099D003E025D096D095D003E021D065
:1001500092D002E01ED08FD008E209D00CE007D088
:1001600001E005D088D087D006E001D00895802F27
:1001700082958F700ED0802F8F700BD07CD0089519
:10018000802F82958F7010D0802F8F700DD07AD0F5
:100190000895082F0295007F05BB026005BB72D051
:1001A0000D7F05BB6FD00895082F0295007F016079
:1001B00005BB026005BB66D00D7F05BB63D008950B
:1001C00001E0D5DF58D057D0089500ECD0DF089576
:1001D0000591003011F0D4DFFBCF0895802F9927CF
:1001E00084361CF084569395FBCF992319F000E3D5
:1001F000090FC6DF99278A301CF08A509395FBCFF0
:10020000992319F000E3090FBBDF00E3080FB8DF03
:100210000895802F877097B1987F982B97B9369A59
:1002200086B186FDFDCF14B125B108958A9A9298C2
:1002300022D0929A8A9826D01BD017D01127222735
:1002400038E013D01FD0110F829B01C0116010D075
:100250003A95B9F738E009D015D0220F829B01C03A
:10026000216006D03A95B9F70895829BFECF089594
:100270008299FECF08950AEF34E03A95F1F70A9596
:10028000D9F7089508E20A95F1F7089508ECF3DF2D
:100290000A95E9F7089520204856414320535953C1
:1002A00054454D202000543A00002020483A0000D8
:1002B0005374617475733A204E4F524D414C202057
:1002C00000004320484947482120200046616E3AFB
:1002D0002046554C4C205350454544200000474192
:1002E00053204445544543544544212020200000D8
:1002F0004556414355415445204E4F57212020201B
:1003000000004F56455243555252454E542120202D
:1003100020200000436865636B2043697263756940
:0603200074202020000003
:00000001FF
